Component: Arm Compiler for Embedded 6.18 Tool: armlink [5e4cc100]

==============================================================================

Section Cross References

    startup_stm32g031xx.o(RESET) refers to startup_stm32g031xx.o(STACK) for __initial_sp
    startup_stm32g031xx.o(RESET) refers to startup_stm32g031xx.o(.text) for Reset_Handler
    startup_stm32g031xx.o(RESET) refers to stm32g0xx_it.o(.text.NMI_Handler) for NMI_Handler
    startup_stm32g031xx.o(RESET) refers to stm32g0xx_it.o(.text.HardFault_Handler) for HardFault_Handler
    startup_stm32g031xx.o(RESET) refers to stm32g0xx_it.o(.text.SVC_Handler) for SVC_Handler
    startup_stm32g031xx.o(RESET) refers to stm32g0xx_it.o(.text.PendSV_Handler) for PendSV_Handler
    startup_stm32g031xx.o(RESET) refers to stm32g0xx_it.o(.text.SysTick_Handler) for SysTick_Handler
    startup_stm32g031xx.o(RESET) refers to exti.o(.text.EXTI0_1_IRQHandler) for EXTI0_1_IRQHandler
    startup_stm32g031xx.o(RESET) refers to exti.o(.text.EXTI4_15_IRQHandler) for EXTI4_15_IRQHandler
    startup_stm32g031xx.o(.text) refers to system_stm32g0xx.o(.text.SystemInit) for SystemInit
    startup_stm32g031xx.o(.text) refers to entry.o(.ARM.Collect$$$$00000000) for __main
    main.o(.text.main) refers to stm32g0xx_hal.o(.text.HAL_Init) for HAL_Init
    main.o(.text.main) refers to stm32g0xx_hal_pwr_ex.o(.text.HAL_PWREx_ControlVoltageScaling) for HAL_PWREx_ControlVoltageScaling
    main.o(.text.main) refers to stm32g0xx_hal_rcc.o(.text.HAL_RCC_OscConfig) for HAL_RCC_OscConfig
    main.o(.text.main) refers to stm32g0xx_hal_rcc.o(.text.HAL_RCC_ClockConfig) for HAL_RCC_ClockConfig
    main.o(.text.main) refers to stm32g0xx_hal_spi.o(.text.HAL_SPI_Init) for HAL_SPI_Init
    main.o(.text.main) refers to led.o(.text.LED_Init) for LED_Init
    main.o(.text.main) refers to key.o(.text.KEY_Init) for KEY_Init
==============================================================================

Removing Unused input sections from the image.

    Removing startup_stm32g031xx.o(HEAP), (512 bytes).
    Removing main.o(.text), (0 bytes).
    Removing main.o(.ARM.exidx.text.main), (8 bytes).
    Removing main.o(.text.SystemClock_Config), (114 bytes).
    Removing main.o(.ARM.exidx.text.SystemClock_Config), (8 bytes).
    Removing main.o(.text.Error_Handler), (8 bytes).
    Removing main.o(.ARM.exidx.text.Error_Handler), (8 bytes).
    Removing main.o(.ARM.use_no_argv), (4 bytes).
    Removing stm32g0xx_it.o(.text), (0 bytes).
    Removing stm32g0xx_it.o(.ARM.exidx.text.NMI_Handler), (8 bytes).
    Removing stm32g0xx_it.o(.ARM.exidx.text.HardFault_Handler), (8 bytes).
    Removing stm32g0xx_it.o(.ARM.exidx.text.SVC_Handler), (8 bytes).
    Removing stm32g0xx_it.o(.ARM.exidx.text.PendSV_Handler), (8 bytes).
    Removing stm32g0xx_it.o(.ARM.exidx.text.SysTick_Handler), (8 bytes).
    Removing stm32g0xx_hal_msp.o(.text), (0 bytes).
    Removing stm32g0xx_hal_msp.o(.ARM.exidx.text.HAL_MspInit), (8 bytes).
    Removing stm32g0xx_hal_msp.o(.ARM.exidx.text.HAL_SPI_MspInit), (8 bytes).
    Removing stm32g0xx_hal_msp.o(.text.HAL_SPI_MspDeInit), (56 bytes).
==============================================================================

Image Symbol Table

    Local Symbols

    Symbol Name                              Value     Ov Type        Size  Object(Section)

    ../clib/division.s                       0x00000000   Number         0  aeabi_sdivfast.o ABSOLUTE
    ../clib/division.s                       0x00000000   Number         0  aeabi_sdivfast_div0.o ABSOLUTE
    ../clib/microlib/division.c              0x00000000   Number         0  uidiv.o ABSOLUTE
    ../clib/microlib/division.c              0x00000000   Number         0  uidiv_div0.o ABSOLUTE
    ../clib/microlib/division.c              0x00000000   Number         0  idiv_div0.o ABSOLUTE
    ../clib/microlib/division.c              0x00000000   Number         0  idiv0.o ABSOLUTE
    ../clib/microlib/division.c              0x00000000   Number         0  uldiv.o ABSOLUTE
    ../clib/microlib/errno.c                 0x00000000   Number         0  errno.o ABSOLUTE
    ../clib/microlib/init/entry.s            0x00000000   Number         0  entry.o ABSOLUTE
    ../clib/microlib/init/entry.s            0x00000000   Number         0  entry2.o ABSOLUTE
    ../clib/microlib/init/entry.s            0x00000000   Number         0  entry5.o ABSOLUTE
    ../clib/microlib/init/entry.s            0x00000000   Number         0  entry7a.o ABSOLUTE
    ../clib/microlib/init/entry.s            0x00000000   Number         0  entry7b.o ABSOLUTE
    ../clib/microlib/init/entry.s            0x00000000   Number         0  entry8a.o ABSOLUTE
    ../clib/microlib/init/entry.s            0x00000000   Number         0  entry8b.o ABSOLUTE
    ../clib/microlib/init/entry.s            0x00000000   Number         0  entry9a.o ABSOLUTE
    ../clib/microlib/init/entry.s            0x00000000   Number         0  entry9b.o ABSOLUTE
    ../clib/microlib/init/entry.s            0x00000000   Number         0  entry10a.o ABSOLUTE
    ../clib/microlib/init/entry.s            0x00000000   Number         0  entry10b.o ABSOLUTE
    ../clib/microlib/init/entry.s            0x00000000   Number         0  entry11a.o ABSOLUTE
    ../clib/microlib/init/entry.s            0x00000000   Number         0  entry11b.o ABSOLUTE
    ../clib/microlib/longlong.c              0x00000000   Number         0  llushr.o ABSOLUTE
    ../clib/microlib/longlong.c              0x00000000   Number         0  llshl.o ABSOLUTE
    ../clib/microlib/longlong.c              0x00000000   Number         0  llsshr.o ABSOLUTE
    ../clib/microlib/printf/printf.c         0x00000000   Number         0  printfb.o ABSOLUTE
    ../clib/microlib/printf/printf.c         0x00000000   Number         0  printf0.o ABSOLUTE
    ../clib/microlib/printf/printf.c         0x00000000   Number         0  printf1.o ABSOLUTE
    ../clib/microlib/printf/printf.c         0x00000000   Number         0  printf2.o ABSOLUTE
    ../clib/microlib/printf/printf.c         0x00000000   Number         0  printf3.o ABSOLUTE
    ../clib/microlib/printf/printf.c         0x00000000   Number         0  printf4.o ABSOLUTE
    ../clib/microlib/printf/printf.c         0x00000000   Number         0  printf5.o ABSOLUTE
    ../clib/microlib/printf/printf.c         0x00000000   Number         0  printf6.o ABSOLUTE
    ../clib/microlib/printf/printf.c         0x00000000   Number         0  printf7.o ABSOLUTE
    ../clib/microlib/printf/printf.c         0x00000000   Number         0  printf8.o ABSOLUTE
    ../clib/microlib/printf/printf.c         0x00000000   Number         0  printfa.o ABSOLUTE
    ../clib/microlib/printf/stubs.s          0x00000000   Number         0  printfstubs.o ABSOLUTE
    ../clib/microlib/stdio/streams.c         0x00000000   Number         0  stdout.o ABSOLUTE
    ../clib/microlib/stubs.s                 0x00000000   Number         0  iusefp.o ABSOLUTE
    ../fplib/microlib/fpadd.c                0x00000000   Number         0  dadd.o ABSOLUTE
    ../fplib/microlib/fpdiv.c                0x00000000   Number         0  ddiv.o ABSOLUTE
    ../fplib/microlib/fpepilogue.c           0x00000000   Number         0  depilogue.o ABSOLUTE
    ../fplib/microlib/fpfix.c                0x00000000   Number         0  dfixui.o ABSOLUTE
    ../fplib/microlib/fpfix.c                0x00000000   Number         0  dfixul.o ABSOLUTE
    ../fplib/microlib/fpflt.c                0x00000000   Number         0  dfltui.o ABSOLUTE
    ../fplib/microlib/fpflt.c                0x00000000   Number         0  dflti.o ABSOLUTE
    ../fplib/microlib/fpmul.c                0x00000000   Number         0  dmul.o ABSOLUTE
    ../fplib/microlib/fpscalb.c              0x00000000   Number         0  dscalb.o ABSOLUTE
    ../fplib/microlib/fpsqrt.c               0x00000000   Number         0  dsqrt.o ABSOLUTE
    ../mathlib/dunder.c                      0x00000000   Number         0  dunder.o ABSOLUTE
    ../mathlib/fpclassify.c                  0x00000000   Number         0  fpclassify.o ABSOLUTE
    ../mathlib/poly.c                        0x00000000   Number         0  poly.o ABSOLUTE
    ../mathlib/pow.c                         0x00000000   Number         0  pow.o ABSOLUTE
    ../mathlib/qnan.c                        0x00000000   Number         0  qnan.o ABSOLUTE
    ../mathlib/sqrt.c                        0x00000000   Number         0  sqrt.o ABSOLUTE
    cdrcmple.s                               0x00000000   Number         0  cdrcmple.o ABSOLUTE
    dc.s                                     0x00000000   Number         0  dc.o ABSOLUTE
    encoder.c                                0x00000000   Number         0  encoder.o ABSOLUTE
    exti.c                                   0x00000000   Number         0  exti.o ABSOLUTE
    handlers.s                               0x00000000   Number         0  handlers.o ABSOLUTE
    init.s                                   0x00000000   Number         0  init.o ABSOLUTE
    key.c                                    0x00000000   Number         0  key.o ABSOLUTE
    led.c                                    0x00000000   Number         0  led.o ABSOLUTE
    main.c                                   0x00000000   Number         0  main.o ABSOLUTE
    oled.c                                   0x00000000   Number         0  oled.o ABSOLUTE
    startup_stm32g031xx.s                    0x00000000   Number         0  startup_stm32g031xx.o ABSOLUTE
    stm32g0xx_hal.c                          0x00000000   Number         0  stm32g0xx_hal.o ABSOLUTE
    stm32g0xx_hal_cortex.c                   0x00000000   Number         0  stm32g0xx_hal_cortex.o ABSOLUTE
    stm32g0xx_hal_dma.c                      0x00000000   Number         0  stm32g0xx_hal_dma.o ABSOLUTE
    stm32g0xx_hal_dma_ex.c                   0x00000000   Number         0  stm32g0xx_hal_dma_ex.o ABSOLUTE
    stm32g0xx_hal_exti.c                     0x00000000   Number         0  stm32g0xx_hal_exti.o ABSOLUTE
    stm32g0xx_hal_flash.c                    0x00000000   Number         0  stm32g0xx_hal_flash.o ABSOLUTE
    stm32g0xx_hal_flash_ex.c                 0x00000000   Number         0  stm32g0xx_hal_flash_ex.o ABSOLUTE
    stm32g0xx_hal_gpio.c                     0x00000000   Number         0  stm32g0xx_hal_gpio.o ABSOLUTE
    stm32g0xx_hal_msp.c                      0x00000000   Number         0  stm32g0xx_hal_msp.o ABSOLUTE
    stm32g0xx_hal_pwr.c                      0x00000000   Number         0  stm32g0xx_hal_pwr.o ABSOLUTE
    stm32g0xx_hal_pwr_ex.c                   0x00000000   Number         0  stm32g0xx_hal_pwr_ex.o ABSOLUTE
    stm32g0xx_hal_rcc.c                      0x00000000   Number         0  stm32g0xx_hal_rcc.o ABSOLUTE
    stm32g0xx_hal_rcc_ex.c                   0x00000000   Number         0  stm32g0xx_hal_rcc_ex.o ABSOLUTE
    stm32g0xx_hal_spi.c                      0x00000000   Number         0  stm32g0xx_hal_spi.o ABSOLUTE
    stm32g0xx_hal_spi_ex.c                   0x00000000   Number         0  stm32g0xx_hal_spi_ex.o ABSOLUTE
    stm32g0xx_hal_tim.c                      0x00000000   Number         0  stm32g0xx_hal_tim.o ABSOLUTE
    stm32g0xx_hal_tim_ex.c                   0x00000000   Number         0  stm32g0xx_hal_tim_ex.o ABSOLUTE
    stm32g0xx_it.c                           0x00000000   Number         0  stm32g0xx_it.o ABSOLUTE
    stm32g0xx_ll_dma.c                       0x00000000   Number         0  stm32g0xx_ll_dma.o ABSOLUTE
    stm32g0xx_ll_rcc.c                       0x00000000   Number         0  stm32g0xx_ll_rcc.o ABSOLUTE
    system_stm32g0xx.c                       0x00000000   Number         0  system_stm32g0xx.o ABSOLUTE
    RESET                                    0x08000000   Section      192  startup_stm32g031xx.o(RESET)
    .ARM.Collect$$$$00000000                 0x080000c0   Section        0  entry.o(.ARM.Collect$$$$00000000)
    .ARM.Collect$$$$00000001                 0x080000c0   Section        4  entry2.o(.ARM.Collect$$$$00000001)
    .ARM.Collect$$$$00000004                 0x080000c4   Section        4  entry5.o(.ARM.Collect$$$$00000004)
    .ARM.Collect$$$$00000008                 0x080000c8   Section        0  entry7b.o(.ARM.Collect$$$$00000008)
    .ARM.Collect$$$$0000000A                 0x080000c8   Section        0  entry8b.o(.ARM.Collect$$$$0000000A)
    .ARM.Collect$$$$0000000B                 0x080000c8   Section        8  entry9a.o(.ARM.Collect$$$$0000000B)
    __lit__00000000                          0x080000d0   Data           4  entry2.o(.ARM.Collect$$$$00002712)
    .ARM.Collect$$$$0000000D                 0x080000d0   Section        0  entry10a.o(.ARM.Collect$$$$0000000D)
    .ARM.Collect$$$$0000000F                 0x080000d0   Section        0  entry11a.o(.ARM.Collect$$$$0000000F)
    .ARM.Collect$$$$00002712                 0x080000d0   Section        4  entry2.o(.ARM.Collect$$$$00002712)
    .text                                    0x080000d4   Section       28  startup_stm32g031xx.o(.text)
    .text                                    0x080000f0   Section        0  ddiv.o(.text)
    .text                                    0x080001e0   Section        0  dfltui.o(.text)
    .text                                    0x080001fc   Section        0  dfixui.o(.text)
    .text                                    0x08000238   Section        0  uidiv_div0.o(.text)
    .text                                    0x08000276   Section        0  uldiv.o(.text)
    .text                                    0x080002d6   Section        0  llushr.o(.text)
    .text                                    0x080002f8   Section        0  iusefp.o(.text)
    .text                                    0x080002f8   Section        0  depilogue.o(.text)
    .text                                    0x080003b8   Section        0  dadd.o(.text)
    .text                                    0x0800051c   Section        0  dmul.o(.text)
    .text                                    0x080005ec   Section        0  dscalb.o(.text)
    .text                                    0x08000618   Section        0  dflti.o(.text)
    .text                                    0x08000640   Section        0  dfixul.o(.text)
    .text                                    0x08000680   Section       40  cdrcmple.o(.text)
    .text                                    0x080006a8   Section       36  init.o(.text)
    .text                                    0x080006cc   Section        0  llshl.o(.text)
    .text                                    0x080006ec   Section        0  llsshr.o(.text)
    .text                                    0x08000712   Section        0  dsqrt.o(.text)
    EC11_update_freq                         0x080007b5   Thumb Code   144  exti.o(.text.EC11_update_freq)
    [Anonymous Symbol]                       0x080007b4   Section        0  exti.o(.text.EC11_update_freq)
    __arm_cp.2_0                             0x08000844   Number         4  exti.o(.text.EC11_update_freq)
    __arm_cp.2_1                             0x08000848   Number         4  exti.o(.text.EC11_update_freq)
    __arm_cp.2_2                             0x0800084c   Number         4  exti.o(.text.EC11_update_freq)
    __arm_cp.2_3                             0x08000850   Number         4  exti.o(.text.EC11_update_freq)
    __arm_cp.2_4                             0x08000854   Number         4  exti.o(.text.EC11_update_freq)
    __arm_cp.2_5                             0x08000858   Number         4  exti.o(.text.EC11_update_freq)
    [Anonymous Symbol]                       0x08000874   Section        0  encoder.o(.text.ENCODER_Init)
    [Anonymous Symbol]                       0x080008b8   Section        0  exti.o(.text.EXTI0_1_IRQHandler)
    [Anonymous Symbol]                       0x080008c4   Section        0  exti.o(.text.EXTI4_15_IRQHandler)
    [Anonymous Symbol]                       0x08000908   Section        0  exti.o(.text.EXTI_Init)
    __arm_cp.4_0                             0x080009a4   Number         4  exti.o(.text.EXTI_Init)
    __arm_cp.4_1                             0x080009a8   Number         4  exti.o(.text.EXTI_Init)
    __arm_cp.4_2                             0x080009ac   Number         4  exti.o(.text.EXTI_Init)
    __arm_cp.4_3                             0x080009b0   Number         4  exti.o(.text.EXTI_Init)
    __arm_cp.4_4                             0x080009b4   Number         4  exti.o(.text.EXTI_Init)
    [Anonymous Symbol]                       0x080009b8   Section        0  stm32g0xx_hal.o(.text.HAL_Delay)
    __arm_cp.10_0                            0x080009d8   Number         4  stm32g0xx_hal.o(.text.HAL_Delay)
    [Anonymous Symbol]                       0x080009dc   Section        0  exti.o(.text.HAL_GPIO_EXTI_Falling_Callback)
    __arm_cp.1_0                             0x08000c90   Number         4  exti.o(.text.HAL_GPIO_EXTI_Falling_Callback)
    __arm_cp.1_1                             0x08000c94   Number         4  exti.o(.text.HAL_GPIO_EXTI_Falling_Callback)
    __arm_cp.1_2                             0x08000c98   Number         4  exti.o(.text.HAL_GPIO_EXTI_Falling_Callback)
    __arm_cp.1_3                             0x08000c9c   Number         4  exti.o(.text.HAL_GPIO_EXTI_Falling_Callback)
    __arm_cp.1_4                             0x08000ca0   Number         4  exti.o(.text.HAL_GPIO_EXTI_Falling_Callback)
    __arm_cp.1_5                             0x08000ca4   Number         4  exti.o(.text.HAL_GPIO_EXTI_Falling_Callback)
    __arm_cp.1_6                             0x08000ca8   Number         4  exti.o(.text.HAL_GPIO_EXTI_Falling_Callback)
    __arm_cp.1_7                             0x08000cac   Number         4  exti.o(.text.HAL_GPIO_EXTI_Falling_Callback)
    __arm_cp.1_8                             0x08000cb0   Number         4  exti.o(.text.HAL_GPIO_EXTI_Falling_Callback)
    __arm_cp.1_9                             0x08000cb4   Number         4  exti.o(.text.HAL_GPIO_EXTI_Falling_Callback)
    __arm_cp.1_10                            0x08000cb8   Number         4  exti.o(.text.HAL_GPIO_EXTI_Falling_Callback)
    __arm_cp.1_11                            0x08000cbc   Number         4  exti.o(.text.HAL_GPIO_EXTI_Falling_Callback)
    __arm_cp.1_12                            0x08000cc0   Number         4  exti.o(.text.HAL_GPIO_EXTI_Falling_Callback)
    __arm_cp.1_13                            0x08000cc4   Number         4  exti.o(.text.HAL_GPIO_EXTI_Falling_Callback)
    __arm_cp.1_14                            0x08000cc8   Number         4  exti.o(.text.HAL_GPIO_EXTI_Falling_Callback)
    __arm_cp.1_15                            0x08000ccc   Number         4  exti.o(.text.HAL_GPIO_EXTI_Falling_Callback)
    __arm_cp.1_16                            0x08000cd0   Number         4  exti.o(.text.HAL_GPIO_EXTI_Falling_Callback)
    __arm_cp.1_17                            0x08000cd4   Number         4  exti.o(.text.HAL_GPIO_EXTI_Falling_Callback)
    [Anonymous Symbol]                       0x08000ce0   Section        0  stm32g0xx_hal_gpio.o(.text.HAL_GPIO_EXTI_IRQHandler)
    __arm_cp.6_0                             0x08000d04   Number         4  stm32g0xx_hal_gpio.o(.text.HAL_GPIO_EXTI_IRQHandler)
    [Anonymous Symbol]                       0x08000d08   Section        0  exti.o(.text.HAL_GPIO_EXTI_Rising_Callback)
    __arm_cp.3_1                             0x08000e30   Number         4  exti.o(.text.HAL_GPIO_EXTI_Rising_Callback)
    __arm_cp.3_2                             0x08000e34   Number         4  exti.o(.text.HAL_GPIO_EXTI_Rising_Callback)
    __arm_cp.3_3                             0x08000e38   Number         4  exti.o(.text.HAL_GPIO_EXTI_Rising_Callback)
    __arm_cp.3_4                             0x08000e3c   Number         4  exti.o(.text.HAL_GPIO_EXTI_Rising_Callback)
    __arm_cp.3_5                             0x08000e40   Number         4  exti.o(.text.HAL_GPIO_EXTI_Rising_Callback)
    __arm_cp.3_6                             0x08000e44   Number         4  exti.o(.text.HAL_GPIO_EXTI_Rising_Callback)
    __arm_cp.3_7                             0x08000e48   Number         4  exti.o(.text.HAL_GPIO_EXTI_Rising_Callback)
    __arm_cp.3_8                             0x08000e4c   Number         4  exti.o(.text.HAL_GPIO_EXTI_Rising_Callback)
    __arm_cp.3_9                             0x08000e50   Number         4  exti.o(.text.HAL_GPIO_EXTI_Rising_Callback)
    [Anonymous Symbol]                       0x08000e54   Section        0  stm32g0xx_hal_gpio.o(.text.HAL_GPIO_Init)
    __arm_cp.0_0                             0x08000ff0   Number         4  stm32g0xx_hal_gpio.o(.text.HAL_GPIO_Init)
    __arm_cp.0_1                             0x08000ff4   Number         4  stm32g0xx_hal_gpio.o(.text.HAL_GPIO_Init)
    __arm_cp.0_2                             0x08000ff8   Number         4  stm32g0xx_hal_gpio.o(.text.HAL_GPIO_Init)
    __arm_cp.0_3                             0x08000ffc   Number         4  stm32g0xx_hal_gpio.o(.text.HAL_GPIO_Init)
    __arm_cp.0_4                             0x08001000   Number         4  stm32g0xx_hal_gpio.o(.text.HAL_GPIO_Init)
    __arm_cp.0_5                             0x08001004   Number         4  stm32g0xx_hal_gpio.o(.text.HAL_GPIO_Init)
    [Anonymous Symbol]                       0x08001008   Section        0  stm32g0xx_hal_gpio.o(.text.HAL_GPIO_ReadPin)
    [Anonymous Symbol]                       0x08001012   Section        0  stm32g0xx_hal_gpio.o(.text.HAL_GPIO_TogglePin)
    [Anonymous Symbol]                       0x08001022   Section        0  stm32g0xx_hal_gpio.o(.text.HAL_GPIO_WritePin)
    [Anonymous Symbol]                       0x08001034   Section        0  stm32g0xx_hal.o(.text.HAL_GetTick)
    [Anonymous Symbol]                       0x0800103c   Section        0  stm32g0xx_hal.o(.text.HAL_IncTick)
    __arm_cp.5_1                             0x0800104c   Number         4  stm32g0xx_hal.o(.text.HAL_IncTick)
    [Anonymous Symbol]                       0x08001050   Section        0  stm32g0xx_hal.o(.text.HAL_Init)
    [Anonymous Symbol]                       0x08001078   Section        0  stm32g0xx_hal.o(.text.HAL_InitTick)
    __arm_cp.1_0                             0x080010b8   Number         4  stm32g0xx_hal.o(.text.HAL_InitTick)
    [Anonymous Symbol]                       0x080010bc   Section        0  stm32g0xx_hal_msp.o(.text.HAL_MspInit)
    __arm_cp.0_0                             0x080010e4   Number         4  stm32g0xx_hal_msp.o(.text.HAL_MspInit)
    [Anonymous Symbol]                       0x080010e8   Section        0  stm32g0xx_hal_cortex.o(.text.HAL_NVIC_EnableIRQ)
    __arm_cp.1_0                             0x080010fc   Number         4  stm32g0xx_hal_cortex.o(.text.HAL_NVIC_EnableIRQ)
    [Anonymous Symbol]                       0x08001100   Section        0  stm32g0xx_hal_cortex.o(.text.HAL_NVIC_SetPriority)
    __arm_cp.0_0                             0x08001138   Number         4  stm32g0xx_hal_cortex.o(.text.HAL_NVIC_SetPriority)
    __arm_cp.0_1                             0x0800113c   Number         4  stm32g0xx_hal_cortex.o(.text.HAL_NVIC_SetPriority)
    [Anonymous Symbol]                       0x08001140   Section        0  stm32g0xx_hal_pwr_ex.o(.text.HAL_PWREx_ControlVoltageScaling)
    __arm_cp.20_0                            0x080011b4   Number         4  stm32g0xx_hal_pwr_ex.o(.text.HAL_PWREx_ControlVoltageScaling)
    __arm_cp.20_2                            0x080011b8   Number         4  stm32g0xx_hal_pwr_ex.o(.text.HAL_PWREx_ControlVoltageScaling)
    [Anonymous Symbol]                       0x080011bc   Section        0  stm32g0xx_hal_rcc.o(.text.HAL_RCC_ClockConfig)
    __arm_cp.2_0                             0x080013a4   Number         4  stm32g0xx_hal_rcc.o(.text.HAL_RCC_ClockConfig)
    __arm_cp.2_1                             0x080013a8   Number         4  stm32g0xx_hal_rcc.o(.text.HAL_RCC_ClockConfig)
    __arm_cp.2_2                             0x080013ac   Number         4  stm32g0xx_hal_rcc.o(.text.HAL_RCC_ClockConfig)
    __arm_cp.2_3                             0x080013b0   Number         4  stm32g0xx_hal_rcc.o(.text.HAL_RCC_ClockConfig)
    __arm_cp.2_4                             0x080013b4   Number         4  stm32g0xx_hal_rcc.o(.text.HAL_RCC_ClockConfig)
    __arm_cp.2_5                             0x080013b8   Number         4  stm32g0xx_hal_rcc.o(.text.HAL_RCC_ClockConfig)
    __arm_cp.2_6                             0x080013bc   Number         4  stm32g0xx_hal_rcc.o(.text.HAL_RCC_ClockConfig)
    __arm_cp.2_7                             0x080013c0   Number         4  stm32g0xx_hal_rcc.o(.text.HAL_RCC_ClockConfig)
    [Anonymous Symbol]                       0x080013c4   Section        0  stm32g0xx_hal_rcc.o(.text.HAL_RCC_OscConfig)
    __arm_cp.1_9                             0x080017ac   Number         4  stm32g0xx_hal_rcc.o(.text.HAL_RCC_OscConfig)
    __arm_cp.1_1                             0x08001810   Number         4  stm32g0xx_hal_rcc.o(.text.HAL_RCC_OscConfig)
    __arm_cp.1_2                             0x08001814   Number         4  stm32g0xx_hal_rcc.o(.text.HAL_RCC_OscConfig)
    __arm_cp.1_3                             0x08001818   Number         4  stm32g0xx_hal_rcc.o(.text.HAL_RCC_OscConfig)
    __arm_cp.1_4                             0x0800181c   Number         4  stm32g0xx_hal_rcc.o(.text.HAL_RCC_OscConfig)
    __arm_cp.1_5                             0x08001820   Number         4  stm32g0xx_hal_rcc.o(.text.HAL_RCC_OscConfig)
    __arm_cp.1_6                             0x08001824   Number         4  stm32g0xx_hal_rcc.o(.text.HAL_RCC_OscConfig)
    __arm_cp.1_7                             0x08001828   Number         4  stm32g0xx_hal_rcc.o(.text.HAL_RCC_OscConfig)
    [Anonymous Symbol]                       0x0800182c   Section        0  stm32g0xx_hal_spi.o(.text.HAL_SPI_Init)
    [Anonymous Symbol]                       0x08001924   Section        0  stm32g0xx_hal_msp.o(.text.HAL_SPI_MspInit)
    __arm_cp.1_0                             0x08001998   Number         4  stm32g0xx_hal_msp.o(.text.HAL_SPI_MspInit)
    [Anonymous Symbol]                       0x0800199c   Section        0  stm32g0xx_hal_spi.o(.text.HAL_SPI_Transmit)
    __arm_cp.4_0                             0x08001bac   Number         4  stm32g0xx_hal_spi.o(.text.HAL_SPI_Transmit)
    [Anonymous Symbol]                       0x08001bb0   Section        0  stm32g0xx_hal_cortex.o(.text.HAL_SYSTICK_Config)
    __arm_cp.4_0                             0x08001bd8   Number         4  stm32g0xx_hal_cortex.o(.text.HAL_SYSTICK_Config)
    __arm_cp.4_1                             0x08001bdc   Number         4  stm32g0xx_hal_cortex.o(.text.HAL_SYSTICK_Config)
    __arm_cp.4_2                             0x08001be0   Number         4  stm32g0xx_hal_cortex.o(.text.HAL_SYSTICK_Config)
    [Anonymous Symbol]                       0x08001be4   Section        0  stm32g0xx_it.o(.text.HardFault_Handler)
    [Anonymous Symbol]                       0x08001be8   Section        0  key.o(.text.KEY_Init)
    [Anonymous Symbol]                       0x08001c1c   Section        0  led.o(.text.LED_Init)
    __arm_cp.0_0                             0x08001c5c   Number         4  led.o(.text.LED_Init)
    __arm_cp.0_1                             0x08001c60   Number         4  led.o(.text.LED_Init)
    [Anonymous Symbol]                       0x08001c64   Section        0  stm32g0xx_it.o(.text.NMI_Handler)
    [Anonymous Symbol]                       0x08001c68   Section        0  oled.o(.text.OLED_Clear1)
    __arm_cp.3_0                             0x08002030   Number         4  oled.o(.text.OLED_Clear1)
    __arm_cp.3_1                             0x08002034   Number         4  oled.o(.text.OLED_Clear1)
    __arm_cp.3_2                             0x08002038   Number         4  oled.o(.text.OLED_Clear1)
    __arm_cp.3_3                             0x0800203c   Number         4  oled.o(.text.OLED_Clear1)
    __arm_cp.3_4                             0x08002040   Number         4  oled.o(.text.OLED_Clear1)
    __arm_cp.3_5                             0x08002044   Number         4  oled.o(.text.OLED_Clear1)
    __arm_cp.3_6                             0x08002048   Number         4  oled.o(.text.OLED_Clear1)
    __arm_cp.3_7                             0x0800204c   Number         4  oled.o(.text.OLED_Clear1)
    __arm_cp.3_8                             0x08002050   Number         4  oled.o(.text.OLED_Clear1)
    __arm_cp.3_9                             0x08002054   Number         4  oled.o(.text.OLED_Clear1)
    __arm_cp.3_10                            0x08002058   Number         4  oled.o(.text.OLED_Clear1)
    __arm_cp.3_11                            0x0800205c   Number         4  oled.o(.text.OLED_Clear1)
    __arm_cp.3_12                            0x08002060   Number         4  oled.o(.text.OLED_Clear1)
    __arm_cp.3_13                            0x08002064   Number         4  oled.o(.text.OLED_Clear1)
    __arm_cp.3_14                            0x08002068   Number         4  oled.o(.text.OLED_Clear1)
    __arm_cp.3_15                            0x0800206c   Number         4  oled.o(.text.OLED_Clear1)
    __arm_cp.3_16                            0x08002070   Number         4  oled.o(.text.OLED_Clear1)
    __arm_cp.3_17                            0x08002074   Number         4  oled.o(.text.OLED_Clear1)
    __arm_cp.3_18                            0x08002078   Number         4  oled.o(.text.OLED_Clear1)
    __arm_cp.3_19                            0x0800207c   Number         4  oled.o(.text.OLED_Clear1)
    __arm_cp.3_20                            0x08002080   Number         4  oled.o(.text.OLED_Clear1)
    __arm_cp.3_21                            0x08002084   Number         4  oled.o(.text.OLED_Clear1)
    __arm_cp.3_22                            0x08002088   Number         4  oled.o(.text.OLED_Clear1)
    __arm_cp.3_23                            0x0800208c   Number         4  oled.o(.text.OLED_Clear1)
    __arm_cp.3_24                            0x08002090   Number         4  oled.o(.text.OLED_Clear1)
    __arm_cp.3_25                            0x08002094   Number         4  oled.o(.text.OLED_Clear1)
    __arm_cp.3_26                            0x08002098   Number         4  oled.o(.text.OLED_Clear1)
    __arm_cp.3_27                            0x0800209c   Number         4  oled.o(.text.OLED_Clear1)
    __arm_cp.3_28                            0x080020a0   Number         4  oled.o(.text.OLED_Clear1)
    __arm_cp.3_29                            0x080020a4   Number         4  oled.o(.text.OLED_Clear1)
    __arm_cp.3_30                            0x080020a8   Number         4  oled.o(.text.OLED_Clear1)
    __arm_cp.3_31                            0x080020ac   Number         4  oled.o(.text.OLED_Clear1)
    __arm_cp.3_32                            0x080020b0   Number         4  oled.o(.text.OLED_Clear1)
    __arm_cp.3_33                            0x080020b4   Number         4  oled.o(.text.OLED_Clear1)
    __arm_cp.3_34                            0x080020b8   Number         4  oled.o(.text.OLED_Clear1)
    __arm_cp.3_35                            0x080020bc   Number         4  oled.o(.text.OLED_Clear1)
    __arm_cp.3_36                            0x080020c0   Number         4  oled.o(.text.OLED_Clear1)
    __arm_cp.3_37                            0x080020c4   Number         4  oled.o(.text.OLED_Clear1)
    __arm_cp.3_38                            0x080020c8   Number         4  oled.o(.text.OLED_Clear1)
    __arm_cp.3_39                            0x080020cc   Number         4  oled.o(.text.OLED_Clear1)
    __arm_cp.3_40                            0x080020d0   Number         4  oled.o(.text.OLED_Clear1)
    __arm_cp.3_41                            0x080020d4   Number         4  oled.o(.text.OLED_Clear1)
    __arm_cp.3_42                            0x080020d8   Number         4  oled.o(.text.OLED_Clear1)
    __arm_cp.3_43                            0x080020dc   Number         4  oled.o(.text.OLED_Clear1)
    __arm_cp.3_44                            0x080020e0   Number         4  oled.o(.text.OLED_Clear1)
    __arm_cp.3_45                            0x080020e4   Number         4  oled.o(.text.OLED_Clear1)
    __arm_cp.3_46                            0x080020e8   Number         4  oled.o(.text.OLED_Clear1)
    __arm_cp.3_47                            0x080020ec   Number         4  oled.o(.text.OLED_Clear1)
    __arm_cp.3_48                            0x080020f0   Number         4  oled.o(.text.OLED_Clear1)
    __arm_cp.3_49                            0x080020f4   Number         4  oled.o(.text.OLED_Clear1)
    __arm_cp.3_50                            0x080020f8   Number         4  oled.o(.text.OLED_Clear1)
    __arm_cp.3_51                            0x080020fc   Number         4  oled.o(.text.OLED_Clear1)
    __arm_cp.3_52                            0x08002100   Number         4  oled.o(.text.OLED_Clear1)
    __arm_cp.3_53                            0x08002104   Number         4  oled.o(.text.OLED_Clear1)
    __arm_cp.3_54                            0x08002108   Number         4  oled.o(.text.OLED_Clear1)
    __arm_cp.3_55                            0x0800210c   Number         4  oled.o(.text.OLED_Clear1)
    __arm_cp.3_56                            0x08002110   Number         4  oled.o(.text.OLED_Clear1)
    __arm_cp.3_57                            0x08002114   Number         4  oled.o(.text.OLED_Clear1)
    __arm_cp.3_58                            0x08002118   Number         4  oled.o(.text.OLED_Clear1)
    __arm_cp.3_59                            0x0800211c   Number         4  oled.o(.text.OLED_Clear1)
    __arm_cp.3_60                            0x08002120   Number         4  oled.o(.text.OLED_Clear1)
    __arm_cp.3_61                            0x08002124   Number         4  oled.o(.text.OLED_Clear1)
    __arm_cp.3_62                            0x08002128   Number         4  oled.o(.text.OLED_Clear1)
    __arm_cp.3_63                            0x0800212c   Number         4  oled.o(.text.OLED_Clear1)
    __arm_cp.3_64                            0x08002130   Number         4  oled.o(.text.OLED_Clear1)
    [Anonymous Symbol]                       0x08002134   Section        0  oled.o(.text.OLED_ColorTurn)
    [Anonymous Symbol]                       0x0800214c   Section        0  oled.o(.text.OLED_DisplayTurn)
    [Anonymous Symbol]                       0x08002174   Section        0  oled.o(.text.OLED_Init)
    __arm_cp.4_2                             0x080022c4   Number         4  oled.o(.text.OLED_Init)
    __arm_cp.4_3                             0x080022c8   Number         4  oled.o(.text.OLED_Init)
    [Anonymous Symbol]                       0x080027ec   Section        0  oled.o(.text.OLED_Refresh)
    [Anonymous Symbol]                       0x08002954   Section        0  oled.o(.text.OLED_ShowChar)
    __arm_cp.12_0                            0x08002b00   Number         4  oled.o(.text.OLED_ShowChar)
    __arm_cp.12_1                            0x08002b04   Number         4  oled.o(.text.OLED_ShowChar)
    [Anonymous Symbol]                       0x08002b08   Section        0  oled.o(.text.OLED_ShowChinese)
    __arm_cp.16_0                            0x08002d6c   Number         4  oled.o(.text.OLED_ShowChinese)
    __arm_cp.16_1                            0x08002d70   Number         4  oled.o(.text.OLED_ShowChinese)
    [Anonymous Symbol]                       0x08002d74   Section        0  oled.o(.text.OLED_WR_Byte)
    [Anonymous Symbol]                       0x08002eb6   Section        0  stm32g0xx_it.o(.text.PendSV_Handler)
    SPI_WaitFifoStateUntilTimeout            0x08002eb9   Thumb Code   320  stm32g0xx_hal_spi.o(.text.SPI_WaitFifoStateUntilTimeout)
    [Anonymous Symbol]                       0x08002eb8   Section        0  stm32g0xx_hal_spi.o(.text.SPI_WaitFifoStateUntilTimeout)
    SPI_WaitFlagStateUntilTimeout            0x08002ff9   Thumb Code   204  stm32g0xx_hal_spi.o(.text.SPI_WaitFlagStateUntilTimeout)
    [Anonymous Symbol]                       0x08002ff8   Section        0  stm32g0xx_hal_spi.o(.text.SPI_WaitFlagStateUntilTimeout)
    __arm_cp.32_0                            0x080030c4   Number         4  stm32g0xx_hal_spi.o(.text.SPI_WaitFlagStateUntilTimeout)
    [Anonymous Symbol]                       0x080030c8   Section        0  stm32g0xx_it.o(.text.SVC_Handler)
    [Anonymous Symbol]                       0x080030cc   Section        0  oled.o(.text.SetCursor)
    [Anonymous Symbol]                       0x080030d4   Section        0  stm32g0xx_it.o(.text.SysTick_Handler)
    [Anonymous Symbol]                       0x080030dc   Section        0  system_stm32g0xx.o(.text.SystemInit)
    __arm_cp.0_0                             0x080030e8   Number         4  system_stm32g0xx.o(.text.SystemInit)
    [Anonymous Symbol]                       0x080030ec   Section        0  exti.o(.text.draw_sel_mode)
    [Anonymous Symbol]                       0x080031d4   Section        0  oled.o(.text.fputc)
    __arm_cp.20_0                            0x08003218   Number         4  oled.o(.text.fputc)
    __arm_cp.20_1                            0x0800321c   Number         4  oled.o(.text.fputc)
    [Anonymous Symbol]                       0x08003220   Section        0  main.o(.text.main)
    __arm_cp.0_0                             0x08003404   Number         4  main.o(.text.main)
    __arm_cp.0_1                             0x08003408   Number         4  main.o(.text.main)
    __arm_cp.0_2                             0x0800340c   Number         4  main.o(.text.main)
    __arm_cp.0_3                             0x08003410   Number         4  main.o(.text.main)
    __arm_cp.0_7                             0x0800342c   Number         4  main.o(.text.main)
    i.__0printf                              0x08003430   Section        0  printfa.o(i.__0printf)
    i.__ARM_clz                              0x08003450   Section        0  depilogue.o(i.__ARM_clz)
    i.__ARM_fpclassify                       0x08003480   Section        0  fpclassify.o(i.__ARM_fpclassify)
    i.__kernel_poly                          0x080034ac   Section        0  poly.o(i.__kernel_poly)
    i.__mathlib_dbl_divzero                  0x08003558   Section        0  dunder.o(i.__mathlib_dbl_divzero)
    i.__mathlib_dbl_infnan2                  0x0800356c   Section        0  dunder.o(i.__mathlib_dbl_infnan2)
    i.__mathlib_dbl_invalid                  0x08003574   Section        0  dunder.o(i.__mathlib_dbl_invalid)
    i.__mathlib_dbl_overflow                 0x08003584   Section        0  dunder.o(i.__mathlib_dbl_overflow)
    i.__mathlib_dbl_underflow                0x08003598   Section        0  dunder.o(i.__mathlib_dbl_underflow)
    i.__scatterload_copy                     0x080035ac   Section       14  handlers.o(i.__scatterload_copy)
    i.__scatterload_null                     0x080035ba   Section        2  handlers.o(i.__scatterload_null)
    i.__scatterload_zeroinit                 0x080035bc   Section       14  handlers.o(i.__scatterload_zeroinit)
    i.__set_errno                            0x080035cc   Section        0  errno.o(i.__set_errno)
    _fp_digits                               0x080035d9   Thumb Code   344  printfa.o(i._fp_digits)
    i._fp_digits                             0x080035d8   Section        0  printfa.o(i._fp_digits)
    _printf_core                             0x0800374d   Thumb Code  1754  printfa.o(i._printf_core)
    i._printf_core                           0x0800374c   Section        0  printfa.o(i._printf_core)
    _printf_post_padding                     0x08003e39   Thumb Code    32  printfa.o(i._printf_post_padding)
    i._printf_post_padding                   0x08003e38   Section        0  printfa.o(i._printf_post_padding)
    _printf_pre_padding                      0x08003e59   Thumb Code    44  printfa.o(i._printf_pre_padding)
    i._printf_pre_padding                    0x08003e58   Section        0  printfa.o(i._printf_pre_padding)
    i.pow                                    0x08003e84   Section        0  pow.o(i.pow)
    i.sqrt                                   0x08004858   Section        0  sqrt.o(i.sqrt)
    bp                                       0x080048a0   Data          16  pow.o(.constdata)
    .constdata                               0x080048a0   Section      136  pow.o(.constdata)
    dp_h                                     0x080048b0   Data          16  pow.o(.constdata)
    dp_l                                     0x080048c0   Data          16  pow.o(.constdata)
    L                                        0x080048d0   Data          48  pow.o(.constdata)
    P                                        0x08004900   Data          40  pow.o(.constdata)
    .constdata                               0x08004928   Section        8  qnan.o(.constdata)
    [Anonymous Symbol]                       0x080051a0   Section        0  exti.o(.rodata.str1.1)
    .data                                    0x20000000   Section        4  stdout.o(.data)
    _errno                                   0x20000004   Data           4  errno.o(.data)
    .data                                    0x20000004   Section        4  errno.o(.data)
    [Anonymous Symbol]                       0x20000008   Section        0  stm32g0xx_hal.o(.data..L_MergedGlobals)
    step_flag                                0x20000010   Data           1  exti.o(.data..L_MergedGlobals)
    [Anonymous Symbol]                       0x20000010   Section        0  exti.o(.data..L_MergedGlobals)
    cur_wav_gain                             0x20000011   Data           1  exti.o(.data..L_MergedGlobals)
    wav_freq_uint                            0x20000014   Data           4  exti.o(.data..L_MergedGlobals)
    wrap                                     0x20000020   Data           1  oled.o(.data.wrap)
    [Anonymous Symbol]                       0x20000020   Section        0  oled.o(.data.wrap)
    _cursor_x                                0x20000028   Data           4  oled.o(.bss..L_MergedGlobals)
    [Anonymous Symbol]                       0x20000028   Section        0  oled.o(.bss..L_MergedGlobals)
    _cursor_y                                0x2000002c   Data           4  oled.o(.bss..L_MergedGlobals)
    cur_row_mode                             0x20000030   Data           1  exti.o(.bss..L_MergedGlobals.5)
    [Anonymous Symbol]                       0x20000030   Section        0  exti.o(.bss..L_MergedGlobals.5)
    EC11_B_State                             0x20000031   Data           1  exti.o(.bss..L_MergedGlobals.5)
    cur_wav_type                             0x20000032   Data           1  exti.o(.bss..L_MergedGlobals.5)
    freq_code                                0x20000034   Data           2  exti.o(.bss..L_MergedGlobals.5)
    freq_uint                                0x20000038   Data           4  exti.o(.bss..L_MergedGlobals.5)
    dds_data                                 0x2000003c   Data           4  exti.o(.bss..L_MergedGlobals.5)
    STACK                                    0x20000528   Section     1024  startup_stm32g031xx.o(STACK)

    Global Symbols

    Symbol Name                              Value     Ov Type        Size  Object(Section)

    BuildAttributes$$THM_ISAv3M$S$PE$A:L22$X:L11$S22$IEEE1$IW$~IW$USESV6$~STKCKD$USESV7$~SHL$OTIME$ROPI$IEEEX$EBA8$MICROLIB$REQ8$PRES8$EABIv2 0x00000000   Number         0  anon$$obj.o ABSOLUTE
    _printf_a                                0x00000000   Number         0  printfstubs.o ABSOLUTE
    _printf_c                                0x00000000   Number         0  printfstubs.o ABSOLUTE
    _printf_charcount                        0x00000000   Number         0  printfstubs.o ABSOLUTE
    _printf_d                                0x00000000   Number         0  printfstubs.o ABSOLUTE
    _printf_e                                0x00000000   Number         0  printfstubs.o ABSOLUTE
    _printf_f                                0x00000000   Number         0  printfstubs.o ABSOLUTE
    _printf_flags                            0x00000000   Number         0  printfstubs.o ABSOLUTE
    _printf_fp_dec                           0x00000000   Number         0  printfstubs.o ABSOLUTE
    _printf_fp_hex                           0x00000000   Number         0  printfstubs.o ABSOLUTE
    _printf_g                                0x00000000   Number         0  printfstubs.o ABSOLUTE
    _printf_i                                0x00000000   Number         0  printfstubs.o ABSOLUTE
    _printf_int_dec                          0x00000000   Number         0  printfstubs.o ABSOLUTE
    _printf_l                                0x00000000   Number         0  printfstubs.o ABSOLUTE
    _printf_lc                               0x00000000   Number         0  printfstubs.o ABSOLUTE
    _printf_ll                               0x00000000   Number         0  printfstubs.o ABSOLUTE
    _printf_lld                              0x00000000   Number         0  printfstubs.o ABSOLUTE
    _printf_lli                              0x00000000   Number         0  printfstubs.o ABSOLUTE
    _printf_llo                              0x00000000   Number         0  printfstubs.o ABSOLUTE
    _printf_llu                              0x00000000   Number         0  printfstubs.o ABSOLUTE
    _printf_llx                              0x00000000   Number         0  printfstubs.o ABSOLUTE
    _printf_longlong_dec                     0x00000000   Number         0  printfstubs.o ABSOLUTE
    _printf_longlong_hex                     0x00000000   Number         0  printfstubs.o ABSOLUTE
    _printf_longlong_oct                     0x00000000   Number         0  printfstubs.o ABSOLUTE
    _printf_ls                               0x00000000   Number         0  printfstubs.o ABSOLUTE
    _printf_mbtowc                           0x00000000   Number         0  printfstubs.o ABSOLUTE
    _printf_n                                0x00000000   Number         0  printfstubs.o ABSOLUTE
    _printf_o                                0x00000000   Number         0  printfstubs.o ABSOLUTE
    _printf_p                                0x00000000   Number         0  printfstubs.o ABSOLUTE
    _printf_percent                          0x00000000   Number         0  printfstubs.o ABSOLUTE
    _printf_pre_padding                      0x00000000   Number         0  printfstubs.o ABSOLUTE
    _printf_return_value                     0x00000000   Number         0  printfstubs.o ABSOLUTE
    _printf_s                                0x00000000   Number         0  printfstubs.o ABSOLUTE
    _printf_sizespec                         0x00000000   Number         0  printfstubs.o ABSOLUTE
    _printf_str                              0x00000000   Number         0  printfstubs.o ABSOLUTE
    _printf_truncate_signed                  0x00000000   Number         0  printfstubs.o ABSOLUTE
    _printf_truncate_unsigned                0x00000000   Number         0  printfstubs.o ABSOLUTE
    _printf_u                                0x00000000   Number         0  printfstubs.o ABSOLUTE
    _printf_wc                               0x00000000   Number         0  printfstubs.o ABSOLUTE
    _printf_wctomb                           0x00000000   Number         0  printfstubs.o ABSOLUTE
    _printf_widthprec                        0x00000000   Number         0  printfstubs.o ABSOLUTE
    _printf_x                                0x00000000   Number         0  printfstubs.o ABSOLUTE
    __cpp_initialize__aeabi_                  - Undefined Weak Reference
    __cxa_finalize                            - Undefined Weak Reference
    __decompress                              - Undefined Weak Reference
    _clock_init                               - Undefined Weak Reference
    _microlib_exit                            - Undefined Weak Reference
    __Vectors_Size                           0x000000c0   Number         0  startup_stm32g031xx.o ABSOLUTE
    __Vectors                                0x08000000   Data           4  startup_stm32g031xx.o(RESET)
    __Vectors_End                            0x080000c0   Data           0  startup_stm32g031xx.o(RESET)
    __main                                   0x080000c1   Thumb Code     0  entry.o(.ARM.Collect$$$$00000000)
    _main_stk                                0x080000c1   Thumb Code     0  entry2.o(.ARM.Collect$$$$00000001)
    _main_scatterload                        0x080000c5   Thumb Code     0  entry5.o(.ARM.Collect$$$$00000004)
    __main_after_scatterload                 0x080000c9   Thumb Code     0  entry5.o(.ARM.Collect$$$$00000004)
    _main_clock                              0x080000c9   Thumb Code     0  entry7b.o(.ARM.Collect$$$$00000008)
    _main_cpp_init                           0x080000c9   Thumb Code     0  entry8b.o(.ARM.Collect$$$$0000000A)
    _main_init                               0x080000c9   Thumb Code     0  entry9a.o(.ARM.Collect$$$$0000000B)
    __rt_final_cpp                           0x080000d1   Thumb Code     0  entry10a.o(.ARM.Collect$$$$0000000D)
    __rt_final_exit                          0x080000d1   Thumb Code     0  entry11a.o(.ARM.Collect$$$$0000000F)
    Reset_Handler                            0x080000d5   Thumb Code     8  startup_stm32g031xx.o(.text)
    ADC1_IRQHandler                          0x080000e7   Thumb Code     0  startup_stm32g031xx.o(.text)
    DMA1_Ch4_5_DMAMUX1_OVR_IRQHandler        0x080000e7   Thumb Code     0  startup_stm32g031xx.o(.text)
    DMA1_Channel1_IRQHandler                 0x080000e7   Thumb Code     0  startup_stm32g031xx.o(.text)
    DMA1_Channel2_3_IRQHandler               0x080000e7   Thumb Code     0  startup_stm32g031xx.o(.text)
    EXTI2_3_IRQHandler                       0x080000e7   Thumb Code     0  startup_stm32g031xx.o(.text)
    FLASH_IRQHandler                         0x080000e7   Thumb Code     0  startup_stm32g031xx.o(.text)
    I2C1_IRQHandler                          0x080000e7   Thumb Code     0  startup_stm32g031xx.o(.text)
    I2C2_IRQHandler                          0x080000e7   Thumb Code     0  startup_stm32g031xx.o(.text)
    LPTIM1_IRQHandler                        0x080000e7   Thumb Code     0  startup_stm32g031xx.o(.text)
    LPTIM2_IRQHandler                        0x080000e7   Thumb Code     0  startup_stm32g031xx.o(.text)
    LPUART1_IRQHandler                       0x080000e7   Thumb Code     0  startup_stm32g031xx.o(.text)
    PVD_IRQHandler                           0x080000e7   Thumb Code     0  startup_stm32g031xx.o(.text)
    RCC_IRQHandler                           0x080000e7   Thumb Code     0  startup_stm32g031xx.o(.text)
    RTC_TAMP_IRQHandler                      0x080000e7   Thumb Code     0  startup_stm32g031xx.o(.text)
    SPI1_IRQHandler                          0x080000e7   Thumb Code     0  startup_stm32g031xx.o(.text)
    SPI2_IRQHandler                          0x080000e7   Thumb Code     0  startup_stm32g031xx.o(.text)
    TIM14_IRQHandler                         0x080000e7   Thumb Code     0  startup_stm32g031xx.o(.text)
    TIM16_IRQHandler                         0x080000e7   Thumb Code     0  startup_stm32g031xx.o(.text)
    TIM17_IRQHandler                         0x080000e7   Thumb Code     0  startup_stm32g031xx.o(.text)
    TIM1_BRK_UP_TRG_COM_IRQHandler           0x080000e7   Thumb Code     0  startup_stm32g031xx.o(.text)
    TIM1_CC_IRQHandler                       0x080000e7   Thumb Code     0  startup_stm32g031xx.o(.text)
    TIM2_IRQHandler                          0x080000e7   Thumb Code     0  startup_stm32g031xx.o(.text)
    TIM3_IRQHandler                          0x080000e7   Thumb Code     0  startup_stm32g031xx.o(.text)
    USART1_IRQHandler                        0x080000e7   Thumb Code     0  startup_stm32g031xx.o(.text)
    USART2_IRQHandler                        0x080000e7   Thumb Code     0  startup_stm32g031xx.o(.text)
    WWDG_IRQHandler                          0x080000e7   Thumb Code     0  startup_stm32g031xx.o(.text)
    __aeabi_ddiv                             0x080000f1   Thumb Code   234  ddiv.o(.text)
    __aeabi_ui2d                             0x080001e1   Thumb Code    24  dfltui.o(.text)
    __aeabi_d2uiz                            0x080001fd   Thumb Code    50  dfixui.o(.text)
    __aeabi_uidiv                            0x08000239   Thumb Code     0  uidiv_div0.o(.text)
    __aeabi_uidivmod                         0x08000239   Thumb Code    62  uidiv_div0.o(.text)
    __aeabi_uldivmod                         0x08000277   Thumb Code    96  uldiv.o(.text)
    __aeabi_llsr                             0x080002d7   Thumb Code    34  llushr.o(.text)
    _ll_ushift_r                             0x080002d7   Thumb Code     0  llushr.o(.text)
    __I$use$fp                               0x080002f9   Thumb Code     0  iusefp.o(.text)
    _double_round                            0x080002f9   Thumb Code    26  depilogue.o(.text)
    _double_epilogue                         0x08000313   Thumb Code   164  depilogue.o(.text)
    __aeabi_dadd                             0x080003b9   Thumb Code   328  dadd.o(.text)
    __aeabi_dsub                             0x08000501   Thumb Code    12  dadd.o(.text)
    __aeabi_drsub                            0x0800050d   Thumb Code    12  dadd.o(.text)
    __aeabi_dmul                             0x0800051d   Thumb Code   202  dmul.o(.text)
    __ARM_scalbn                             0x080005ed   Thumb Code    44  dscalb.o(.text)
    scalbn                                   0x080005ed   Thumb Code     0  dscalb.o(.text)
    __aeabi_i2d                              0x08000619   Thumb Code    34  dflti.o(.text)
    __aeabi_d2ulz                            0x08000641   Thumb Code    54  dfixul.o(.text)
    __aeabi_cdrcmple                         0x08000681   Thumb Code    38  cdrcmple.o(.text)
    __scatterload                            0x080006a9   Thumb Code    28  init.o(.text)
    __scatterload_rt2                        0x080006a9   Thumb Code     0  init.o(.text)
    __aeabi_llsl                             0x080006cd   Thumb Code    32  llshl.o(.text)
    _ll_shift_l                              0x080006cd   Thumb Code     0  llshl.o(.text)
    __aeabi_lasr                             0x080006ed   Thumb Code    38  llsshr.o(.text)
    _ll_sshift_r                             0x080006ed   Thumb Code     0  llsshr.o(.text)
    _dsqrt                                   0x08000713   Thumb Code   162  dsqrt.o(.text)
    ENCODER_Init                             0x08000875   Thumb Code    68  encoder.o(.text.ENCODER_Init)
    EXTI0_1_IRQHandler                       0x080008b9   Thumb Code    10  exti.o(.text.EXTI0_1_IRQHandler)
    EXTI4_15_IRQHandler                      0x080008c5   Thumb Code    68  exti.o(.text.EXTI4_15_IRQHandler)
    EXTI_Init                                0x08000909   Thumb Code   156  exti.o(.text.EXTI_Init)
    HAL_Delay                                0x080009b9   Thumb Code    32  stm32g0xx_hal.o(.text.HAL_Delay)
    HAL_GPIO_EXTI_Falling_Callback           0x080009dd   Thumb Code   692  exti.o(.text.HAL_GPIO_EXTI_Falling_Callback)
    HAL_GPIO_EXTI_IRQHandler                 0x08000ce1   Thumb Code    36  stm32g0xx_hal_gpio.o(.text.HAL_GPIO_EXTI_IRQHandler)
    HAL_GPIO_EXTI_Rising_Callback            0x08000d09   Thumb Code   296  exti.o(.text.HAL_GPIO_EXTI_Rising_Callback)
    HAL_GPIO_Init                            0x08000e55   Thumb Code   412  stm32g0xx_hal_gpio.o(.text.HAL_GPIO_Init)
    HAL_GPIO_ReadPin                         0x08001009   Thumb Code    10  stm32g0xx_hal_gpio.o(.text.HAL_GPIO_ReadPin)
    HAL_GPIO_TogglePin                       0x08001013   Thumb Code    16  stm32g0xx_hal_gpio.o(.text.HAL_GPIO_TogglePin)
    HAL_GPIO_WritePin                        0x08001023   Thumb Code    16  stm32g0xx_hal_gpio.o(.text.HAL_GPIO_WritePin)
    HAL_GetTick                              0x08001035   Thumb Code     8  stm32g0xx_hal.o(.text.HAL_GetTick)
    HAL_IncTick                              0x0800103d   Thumb Code    16  stm32g0xx_hal.o(.text.HAL_IncTick)
    HAL_Init                                 0x08001051   Thumb Code    40  stm32g0xx_hal.o(.text.HAL_Init)
    HAL_InitTick                             0x08001079   Thumb Code    64  stm32g0xx_hal.o(.text.HAL_InitTick)
    HAL_MspInit                              0x080010bd   Thumb Code    40  stm32g0xx_hal_msp.o(.text.HAL_MspInit)
    HAL_NVIC_EnableIRQ                       0x080010e9   Thumb Code    20  stm32g0xx_hal_cortex.o(.text.HAL_NVIC_EnableIRQ)
    HAL_NVIC_SetPriority                     0x08001101   Thumb Code    56  stm32g0xx_hal_cortex.o(.text.HAL_NVIC_SetPriority)
    HAL_PWREx_ControlVoltageScaling          0x08001141   Thumb Code   116  stm32g0xx_hal_pwr_ex.o(.text.HAL_PWREx_ControlVoltageScaling)
    HAL_RCC_ClockConfig                      0x080011bd   Thumb Code   488  stm32g0xx_hal_rcc.o(.text.HAL_RCC_ClockConfig)
    HAL_RCC_OscConfig                        0x080013c5   Thumb Code  1100  stm32g0xx_hal_rcc.o(.text.HAL_RCC_OscConfig)
    HAL_SPI_Init                             0x0800182d   Thumb Code   248  stm32g0xx_hal_spi.o(.text.HAL_SPI_Init)
    HAL_SPI_MspInit                          0x08001925   Thumb Code   116  stm32g0xx_hal_msp.o(.text.HAL_SPI_MspInit)
    HAL_SPI_Transmit                         0x0800199d   Thumb Code   528  stm32g0xx_hal_spi.o(.text.HAL_SPI_Transmit)
    HAL_SYSTICK_Config                       0x08001bb1   Thumb Code    40  stm32g0xx_hal_cortex.o(.text.HAL_SYSTICK_Config)
    HardFault_Handler                        0x08001be5   Thumb Code     2  stm32g0xx_it.o(.text.HardFault_Handler)
    KEY_Init                                 0x08001be9   Thumb Code    52  key.o(.text.KEY_Init)
    LED_Init                                 0x08001c1d   Thumb Code    64  led.o(.text.LED_Init)
    NMI_Handler                              0x08001c65   Thumb Code     2  stm32g0xx_it.o(.text.NMI_Handler)
    OLED_Clear1                              0x08001c69   Thumb Code   968  oled.o(.text.OLED_Clear1)
    OLED_ColorTurn                           0x08002135   Thumb Code    24  oled.o(.text.OLED_ColorTurn)
    OLED_DisplayTurn                         0x0800214d   Thumb Code    38  oled.o(.text.OLED_DisplayTurn)
    OLED_Init                                0x08002175   Thumb Code  1654  oled.o(.text.OLED_Init)
    OLED_Refresh                             0x080027ed   Thumb Code   360  oled.o(.text.OLED_Refresh)
    OLED_ShowChar                            0x08002955   Thumb Code   428  oled.o(.text.OLED_ShowChar)
    OLED_ShowChinese                         0x08002b09   Thumb Code   612  oled.o(.text.OLED_ShowChinese)
    OLED_WR_Byte                             0x08002d75   Thumb Code   322  oled.o(.text.OLED_WR_Byte)
    PendSV_Handler                           0x08002eb7   Thumb Code     2  stm32g0xx_it.o(.text.PendSV_Handler)
    SVC_Handler                              0x080030c9   Thumb Code     2  stm32g0xx_it.o(.text.SVC_Handler)
    SetCursor                                0x080030cd   Thumb Code     8  oled.o(.text.SetCursor)
    SysTick_Handler                          0x080030d5   Thumb Code     8  stm32g0xx_it.o(.text.SysTick_Handler)
    SystemInit                               0x080030dd   Thumb Code    12  system_stm32g0xx.o(.text.SystemInit)
    draw_sel_mode                            0x080030ed   Thumb Code   232  exti.o(.text.draw_sel_mode)
    fputc                                    0x080031d5   Thumb Code    68  oled.o(.text.fputc)
    main                                     0x08003221   Thumb Code   484  main.o(.text.main)
    __0printf                                0x08003431   Thumb Code    24  printfa.o(i.__0printf)
    __1printf                                0x08003431   Thumb Code     0  printfa.o(i.__0printf)
    __2printf                                0x08003431   Thumb Code     0  printfa.o(i.__0printf)
    __c89printf                              0x08003431   Thumb Code     0  printfa.o(i.__0printf)
    printf                                   0x08003431   Thumb Code     0  printfa.o(i.__0printf)
    __ARM_clz                                0x08003451   Thumb Code    46  depilogue.o(i.__ARM_clz)
    __ARM_fpclassify                         0x08003481   Thumb Code    40  fpclassify.o(i.__ARM_fpclassify)
    __kernel_poly                            0x080034ad   Thumb Code   172  poly.o(i.__kernel_poly)
    __mathlib_dbl_divzero                    0x08003559   Thumb Code    16  dunder.o(i.__mathlib_dbl_divzero)
    __mathlib_dbl_infnan2                    0x0800356d   Thumb Code     8  dunder.o(i.__mathlib_dbl_infnan2)
    __mathlib_dbl_invalid                    0x08003575   Thumb Code    16  dunder.o(i.__mathlib_dbl_invalid)
    __mathlib_dbl_overflow                   0x08003585   Thumb Code    16  dunder.o(i.__mathlib_dbl_overflow)
    __mathlib_dbl_underflow                  0x08003599   Thumb Code    14  dunder.o(i.__mathlib_dbl_underflow)
    __scatterload_copy                       0x080035ad   Thumb Code    14  handlers.o(i.__scatterload_copy)
    __scatterload_null                       0x080035bb   Thumb Code     2  handlers.o(i.__scatterload_null)
    __scatterload_zeroinit                   0x080035bd   Thumb Code    14  handlers.o(i.__scatterload_zeroinit)
    __set_errno                              0x080035cd   Thumb Code     6  errno.o(i.__set_errno)
    pow                                      0x08003e85   Thumb Code  2506  pow.o(i.pow)
    sqrt                                     0x08004859   Thumb Code    66  sqrt.o(i.sqrt)
    __mathlib_zero                           0x08004928   Data           8  qnan.o(.constdata)
    AHBPrescTable                            0x08004930   Data          64  system_stm32g0xx.o(.rodata.AHBPrescTable)
    Hzk1                                     0x08004970   Data         576  oled.o(.rodata.Hzk1)
    asc2_1608                                0x08004bb0   Data        1520  oled.o(.rodata.asc2_1608)
    wav_gain_name                            0x080051a3   Data         300  exti.o(.rodata.wav_gain_name)
    wav_uint_name                            0x080052cf   Data         210  exti.o(.rodata.wav_uint_name)
    Region$$Table$$Base                      0x080053a4   Number         0  anon$$obj.o(Region$$Table)
    Region$$Table$$Limit                     0x080053c4   Number         0  anon$$obj.o(Region$$Table)
    __stdout                                 0x20000000   Data           4  stdout.o(.data)
    uwTickFreq                               0x20000008   Data           1  stm32g0xx_hal.o(.data..L_MergedGlobals)
    uwTickPrio                               0x2000000c   Data           4  stm32g0xx_hal.o(.data..L_MergedGlobals)
    SystemCoreClock                          0x20000018   Data           4  system_stm32g0xx.o(.data.SystemCoreClock)
    freq                                     0x2000001c   Data           4  main.o(.data.freq)
    OLED_GRAM                                0x20000040   Data        1152  oled.o(.bss.OLED_GRAM)
    hspi1                                    0x200004c0   Data         100  main.o(.bss.hspi1)
    uwTick                                   0x20000524   Data           4  stm32g0xx_hal.o(.bss.uwTick)
    __initial_sp                             0x20000928   Data           0  startup_stm32g031xx.o(STACK)



==============================================================================

Memory Map of the image

  Image Entry point : 0x080000c1

  Load Region LR_IROM1 (Base: 0x08000000, Size: 0x000053f0, Max: 0x00010000, ABSOLUTE)

    Execution Region ER_IROM1 (Exec base: 0x08000000, Load base: 0x08000000, Size: 0x000053c4, Max: 0x00010000, ABSOLUTE)

    Exec Addr    Load Addr    Size         Type   Attr      Idx    E Section Name        Object

    0x08000000   0x08000000   0x000000c0   Data   RO            3    RESET               startup_stm32g031xx.o
    0x080000c0   0x080000c0   0x00000000   Code   RO          746  * .ARM.Collect$$$$00000000  mc_p.l(entry.o)
    0x080000c0   0x080000c0   0x00000004   Code   RO         1045    .ARM.Collect$$$$00000001  mc_p.l(entry2.o)
    0x080000c4   0x080000c4   0x00000004   Code   RO         1048    .ARM.Collect$$$$00000004  mc_p.l(entry5.o)
    0x080000c8   0x080000c8   0x00000000   Code   RO         1050    .ARM.Collect$$$$00000008  mc_p.l(entry7b.o)
    0x080000c8   0x080000c8   0x00000000   Code   RO         1052    .ARM.Collect$$$$0000000A  mc_p.l(entry8b.o)
    0x080000c8   0x080000c8   0x00000008   Code   RO         1053    .ARM.Collect$$$$0000000B  mc_p.l(entry9a.o)
    0x080000d0   0x080000d0   0x00000000   Code   RO         1055    .ARM.Collect$$$$0000000D  mc_p.l(entry10a.o)
    0x080000d0   0x080000d0   0x00000000   Code   RO         1057    .ARM.Collect$$$$0000000F  mc_p.l(entry11a.o)
    0x080000d0   0x080000d0   0x00000004   Code   RO         1046    .ARM.Collect$$$$00002712  mc_p.l(entry2.o)
    0x080000d4   0x080000d4   0x0000001c   Code   RO            4    .text               startup_stm32g031xx.o
    0x080000f0   0x080000f0   0x000000f0   Code   RO         1016    .text               mf_p.l(ddiv.o)
    0x080001e0   0x080001e0   0x0000001c   Code   RO         1018    .text               mf_p.l(dfltui.o)
    0x080001fc   0x080001fc   0x0000003c   Code   RO         1020    .text               mf_p.l(dfixui.o)
    0x08000238   0x08000238   0x0000003e   Code   RO         1064    .text               mc_p.l(uidiv_div0.o)
    0x08000276   0x08000276   0x00000060   Code   RO         1070    .text               mc_p.l(uldiv.o)
    0x080002d6   0x080002d6   0x00000022   Code   RO         1072    .text               mc_p.l(llushr.o)
    0x080002f8   0x080002f8   0x00000000   Code   RO         1081    .text               mc_p.l(iusefp.o)
    0x080002f8   0x080002f8   0x000000be   Code   RO         1082    .text               mf_p.l(depilogue.o)
    0x080003b6   0x080003b6   0x00000002   PAD
    0x080003b8   0x080003b8   0x00000164   Code   RO         1086    .text               mf_p.l(dadd.o)
    0x0800051c   0x0800051c   0x000000d0   Code   RO         1088    .text               mf_p.l(dmul.o)
    0x080005ec   0x080005ec   0x0000002c   Code   RO         1090    .text               mf_p.l(dscalb.o)
    0x08000618   0x08000618   0x00000028   Code   RO         1092    .text               mf_p.l(dflti.o)
    0x08000640   0x08000640   0x00000040   Code   RO         1094    .text               mf_p.l(dfixul.o)
    0x08000680   0x08000680   0x00000028   Code   RO         1096    .text               mf_p.l(cdrcmple.o)
    0x080006a8   0x080006a8   0x00000024   Code   RO         1098    .text               mc_p.l(init.o)
    0x080006cc   0x080006cc   0x00000020   Code   RO         1100    .text               mc_p.l(llshl.o)
    0x080006ec   0x080006ec   0x00000026   Code   RO         1102    .text               mc_p.l(llsshr.o)
    0x08000712   0x08000712   0x000000a2   Code   RO         1104    .text               mf_p.l(dsqrt.o)
    0x080007b4   0x080007b4   0x000000c0   Code   RO          718    .text.EC11_update_freq  exti.o
    0x08000874   0x08000874   0x00000044   Code   RO          650    .text.ENCODER_Init  encoder.o
    0x080008b8   0x080008b8   0x0000000a   Code   RO          724    .text.EXTI0_1_IRQHandler  exti.o
    0x080008c2   0x080008c2   0x00000002   PAD
    0x080008c4   0x080008c4   0x00000044   Code   RO          726    .text.EXTI4_15_IRQHandler  exti.o
    0x08000908   0x08000908   0x000000b0   Code   RO          722    .text.EXTI_Init     exti.o
    0x080009b8   0x080009b8   0x00000024   Code   RO          532    .text.HAL_Delay     stm32g0xx_hal.o
    0x080009dc   0x080009dc   0x00000304   Code   RO          716    .text.HAL_GPIO_EXTI_Falling_Callback  exti.o
    0x08000ce0   0x08000ce0   0x00000028   Code   RO          315    .text.HAL_GPIO_EXTI_IRQHandler  stm32g0xx_hal_gpio.o
    0x08000d08   0x08000d08   0x0000014c   Code   RO          720    .text.HAL_GPIO_EXTI_Rising_Callback  exti.o
    0x08000e54   0x08000e54   0x000001b4   Code   RO          303    .text.HAL_GPIO_Init  stm32g0xx_hal_gpio.o
    0x08001008   0x08001008   0x0000000a   Code   RO          307    .text.HAL_GPIO_ReadPin  stm32g0xx_hal_gpio.o
    0x08001012   0x08001012   0x00000010   Code   RO          311    .text.HAL_GPIO_TogglePin  stm32g0xx_hal_gpio.o
    0x08001022   0x08001022   0x00000010   Code   RO          309    .text.HAL_GPIO_WritePin  stm32g0xx_hal_gpio.o
    0x08001032   0x08001032   0x00000002   PAD
    0x08001034   0x08001034   0x00000008   Code   RO          524    .text.HAL_GetTick   stm32g0xx_hal.o
    0x0800103c   0x0800103c   0x00000014   Code   RO          522    .text.HAL_IncTick   stm32g0xx_hal.o
    0x08001050   0x08001050   0x00000028   Code   RO          512    .text.HAL_Init      stm32g0xx_hal.o
    0x08001078   0x08001078   0x00000044   Code   RO          514    .text.HAL_InitTick  stm32g0xx_hal.o
    0x080010bc   0x080010bc   0x0000002c   Code   RO           44    .text.HAL_MspInit   stm32g0xx_hal_msp.o
    0x080010e8   0x080010e8   0x00000018   Code   RO          476    .text.HAL_NVIC_EnableIRQ  stm32g0xx_hal_cortex.o
    0x08001100   0x08001100   0x00000040   Code   RO          474    .text.HAL_NVIC_SetPriority  stm32g0xx_hal_cortex.o
    0x08001140   0x08001140   0x0000007c   Code   RO          452    .text.HAL_PWREx_ControlVoltageScaling  stm32g0xx_hal_pwr_ex.o
    0x080011bc   0x080011bc   0x00000208   Code   RO          187    .text.HAL_RCC_ClockConfig  stm32g0xx_hal_rcc.o
    0x080013c4   0x080013c4   0x00000468   Code   RO          185    .text.HAL_RCC_OscConfig  stm32g0xx_hal_rcc.o
    0x0800182c   0x0800182c   0x000000f8   Code   RO           58    .text.HAL_SPI_Init  stm32g0xx_hal_spi.o
    0x08001924   0x08001924   0x00000078   Code   RO           46    .text.HAL_SPI_MspInit  stm32g0xx_hal_msp.o
    0x0800199c   0x0800199c   0x00000214   Code   RO           66    .text.HAL_SPI_Transmit  stm32g0xx_hal_spi.o
    0x08001bb0   0x08001bb0   0x00000034   Code   RO          482    .text.HAL_SYSTICK_Config  stm32g0xx_hal_cortex.o
    0x08001be4   0x08001be4   0x00000002   Code   RO           29    .text.HardFault_Handler  stm32g0xx_it.o
    0x08001be6   0x08001be6   0x00000002   PAD
    0x08001be8   0x08001be8   0x00000034   Code   RO          641    .text.KEY_Init      key.o
    0x08001c1c   0x08001c1c   0x00000048   Code   RO          633    .text.LED_Init      led.o
    0x08001c64   0x08001c64   0x00000002   Code   RO           27    .text.NMI_Handler   stm32g0xx_it.o
    0x08001c66   0x08001c66   0x00000002   PAD
    0x08001c68   0x08001c68   0x000004cc   Code   RO          665    .text.OLED_Clear1   oled.o
    0x08002134   0x08002134   0x00000018   Code   RO          669    .text.OLED_ColorTurn  oled.o
    0x0800214c   0x0800214c   0x00000026   Code   RO          671    .text.OLED_DisplayTurn  oled.o
    0x08002172   0x08002172   0x00000002   PAD
    0x08002174   0x08002174   0x00000676   Code   RO          667    .text.OLED_Init     oled.o
    0x080027ea   0x080027ea   0x00000002   PAD
    0x080027ec   0x080027ec   0x00000168   Code   RO          661    .text.OLED_Refresh  oled.o
    0x08002954   0x08002954   0x000001b4   Code   RO          683    .text.OLED_ShowChar  oled.o
    0x08002b08   0x08002b08   0x0000026c   Code   RO          691    .text.OLED_ShowChinese  oled.o
    0x08002d74   0x08002d74   0x00000142   Code   RO          659    .text.OLED_WR_Byte  oled.o
    0x08002eb6   0x08002eb6   0x00000002   Code   RO           33    .text.PendSV_Handler  stm32g0xx_it.o
    0x08002eb8   0x08002eb8   0x00000140   Code   RO          120    .text.SPI_WaitFifoStateUntilTimeout  stm32g0xx_hal_spi.o
    0x08002ff8   0x08002ff8   0x000000d0   Code   RO          122    .text.SPI_WaitFlagStateUntilTimeout  stm32g0xx_hal_spi.o
    0x080030c8   0x080030c8   0x00000002   Code   RO           31    .text.SVC_Handler   stm32g0xx_it.o
    0x080030ca   0x080030ca   0x00000002   PAD
    0x080030cc   0x080030cc   0x00000008   Code   RO          695    .text.SetCursor     oled.o
    0x080030d4   0x080030d4   0x00000008   Code   RO           35    .text.SysTick_Handler  stm32g0xx_it.o
    0x080030dc   0x080030dc   0x00000010   Code   RO          618    .text.SystemInit    system_stm32g0xx.o
    0x080030ec   0x080030ec   0x000000e8   Code   RO          714    .text.draw_sel_mode  exti.o
    0x080031d4   0x080031d4   0x0000004c   Code   RO          699    .text.fputc         oled.o
    0x08003220   0x08003220   0x00000210   Code   RO           11    .text.main          main.o
    0x08003430   0x08003430   0x00000020   Code   RO          988    i.__0printf         mc_p.l(printfa.o)
    0x08003450   0x08003450   0x0000002e   Code   RO         1084    i.__ARM_clz         mf_p.l(depilogue.o)
    0x0800347e   0x0800347e   0x00000002   PAD
    0x08003480   0x08003480   0x0000002c   Code   RO         1036    i.__ARM_fpclassify  m_ps.l(fpclassify.o)
    0x080034ac   0x080034ac   0x000000ac   Code   RO         1038    i.__kernel_poly     m_ps.l(poly.o)
    0x08003558   0x08003558   0x00000014   Code   RO         1022    i.__mathlib_dbl_divzero  m_ps.l(dunder.o)
    0x0800356c   0x0800356c   0x00000008   Code   RO         1024    i.__mathlib_dbl_infnan2  m_ps.l(dunder.o)
    0x08003574   0x08003574   0x00000010   Code   RO         1025    i.__mathlib_dbl_invalid  m_ps.l(dunder.o)
    0x08003584   0x08003584   0x00000014   Code   RO         1026    i.__mathlib_dbl_overflow  m_ps.l(dunder.o)
    0x08003598   0x08003598   0x00000014   Code   RO         1028    i.__mathlib_dbl_underflow  m_ps.l(dunder.o)
    0x080035ac   0x080035ac   0x0000000e   Code   RO         1108    i.__scatterload_copy  mc_p.l(handlers.o)
    0x080035ba   0x080035ba   0x00000002   Code   RO         1109    i.__scatterload_null  mc_p.l(handlers.o)
    0x080035bc   0x080035bc   0x0000000e   Code   RO         1110    i.__scatterload_zeroinit  mc_p.l(handlers.o)
    0x080035ca   0x080035ca   0x00000002   PAD
    0x080035cc   0x080035cc   0x0000000c   Code   RO         1076    i.__set_errno       mc_p.l(errno.o)
    0x080035d8   0x080035d8   0x00000174   Code   RO          995    i._fp_digits        mc_p.l(printfa.o)
    0x0800374c   0x0800374c   0x000006ec   Code   RO          996    i._printf_core      mc_p.l(printfa.o)
    0x08003e38   0x08003e38   0x00000020   Code   RO          997    i._printf_post_padding  mc_p.l(printfa.o)
    0x08003e58   0x08003e58   0x0000002c   Code   RO          998    i._printf_pre_padding  mc_p.l(printfa.o)
    0x08003e84   0x08003e84   0x000009d4   Code   RO          742    i.pow               m_ps.l(pow.o)
    0x08004858   0x08004858   0x00000048   Code   RO         1042    i.sqrt              m_ps.l(sqrt.o)
    0x080048a0   0x080048a0   0x00000088   Data   RO          743    .constdata          m_ps.l(pow.o)
    0x08004928   0x08004928   0x00000008   Data   RO         1040    .constdata          m_ps.l(qnan.o)
    0x08004930   0x08004930   0x00000040   Data   RO          623    .rodata.AHBPrescTable  system_stm32g0xx.o
    0x08004970   0x08004970   0x00000240   Data   RO          702    .rodata.Hzk1        oled.o
    0x08004bb0   0x08004bb0   0x000005f0   Data   RO          701    .rodata.asc2_1608   oled.o
    0x080051a0   0x080051a0   0x00000003   Data   RO          730    .rodata.str1.1      exti.o
    0x080051a3   0x080051a3   0x0000012c   Data   RO          729    .rodata.wav_gain_name  exti.o
    0x080052cf   0x080052cf   0x000000d2   Data   RO          728    .rodata.wav_uint_name  exti.o
    0x080053a1   0x080053a1   0x00000003   PAD
    0x080053a4   0x080053a4   0x00000020   Data   RO         1107    Region$$Table       anon$$obj.o


    Execution Region RW_IRAM1 (Exec base: 0x20000000, Load base: 0x080053c8, Size: 0x00000928, Max: 0x00002000, ABSOLUTE)

    Exec Addr    Load Addr    Size         Type   Attr      Idx    E Section Name        Object

    0x20000000   0x080053c8   0x00000004   Data   RW         1059    .data               mc_p.l(stdout.o)
    0x20000004   0x080053cc   0x00000004   Data   RW         1077    .data               mc_p.l(errno.o)
    0x20000008   0x080053d0   0x00000008   Data   RW          581    .data..L_MergedGlobals  stm32g0xx_hal.o
    0x20000010   0x080053d8   0x00000008   Data   RW          732    .data..L_MergedGlobals  exti.o
    0x20000018   0x080053e0   0x00000004   Data   RW          622    .data.SystemCoreClock  system_stm32g0xx.o
    0x2000001c   0x080053e4   0x00000004   Data   RW           17    .data.freq          main.o
    0x20000020   0x080053e8   0x00000001   Data   RW          704    .data.wrap          oled.o
    0x20000021   0x080053e9   0x00000007   PAD
    0x20000028        -       0x00000008   Zero   RW          705    .bss..L_MergedGlobals  oled.o
    0x20000030        -       0x00000010   Zero   RW          733    .bss..L_MergedGlobals.5  exti.o
    0x20000040        -       0x00000480   Zero   RW          703    .bss.OLED_GRAM      oled.o
    0x200004c0        -       0x00000064   Zero   RW           18    .bss.hspi1          main.o
    0x20000524        -       0x00000004   Zero   RW          580    .bss.uwTick         stm32g0xx_hal.o
    0x20000528        -       0x00000400   Zero   RW            1    STACK               startup_stm32g031xx.o


==============================================================================

Image component sizes


      Code (inc. data)   RO Data    RW Data    ZI Data      Debug   Object Name

        68          0          0          0          0       1912   encoder.o
      1782        192        513          8         16       7762   exti.o
        52          0          0          0          0       1860   key.o
        72          8          0          0          0       1935   led.o
       528         44          0          4        100       5428   main.o
      4766        292       2096          1       1160      12494   oled.o
        28          8        192          0       1024        644   startup_stm32g031xx.o
       172         12          0          8          4       7625   stm32g0xx_hal.o
       140         24          0          0          0       6678   stm32g0xx_hal_cortex.o
       518         28          0          0          0       4868   stm32g0xx_hal_gpio.o
       164          8          0          0          0       5067   stm32g0xx_hal_msp.o
       124          8          0          0          0       6974   stm32g0xx_hal_pwr_ex.o
      1648         80          0          0          0       9270   stm32g0xx_hal_rcc.o
      1308          8          0          0          0      27243   stm32g0xx_hal_spi.o
        16          0          0          0          0        747   stm32g0xx_it.o
        16          4         64          4          0       2252   system_stm32g0xx.o

    ----------------------------------------------------------------------
     11416        716       2900         28       2308     102759   Object Totals
         0          0         32          0          0          0   (incl. Generated)
        14          0          3          3          4          0   (incl. Padding)

    ----------------------------------------------------------------------

      Code (inc. data)   RO Data    RW Data    ZI Data      Debug   Library Member Name

        84         14          0          0          0        340   dunder.o
        44          4          0          0          0         60   fpclassify.o
       172          0          0          0          0         76   poly.o
      2516        206        136          0          0        236   pow.o
         0          0          8          0          0          0   qnan.o
        72          6          0          0          0         76   sqrt.o
         0          0          0          0          0          0   entry.o
         0          0          0          0          0          0   entry10a.o
         0          0          0          0          0          0   entry11a.o
         8          4          0          0          0          0   entry2.o
         4          0          0          0          0          0   entry5.o
         0          0          0          0          0          0   entry7b.o
         0          0          0          0          0          0   entry8b.o
         8          4          0          0          0          0   entry9a.o
        12          6          0          4          0         60   errno.o
        30          0          0          0          0          0   handlers.o
        36          8          0          0          0         68   init.o
         0          0          0          0          0          0   iusefp.o
        32          0          0          0          0         68   llshl.o
        38          0          0          0          0         68   llsshr.o
        34          0          0          0          0         68   llushr.o
      2252         98          0          0          0        412   printfa.o
         0          0          0          4          0          0   stdout.o
        62          0          0          0          0         72   uidiv_div0.o
        96          0          0          0          0         84   uldiv.o
        40          2          0          0          0         68   cdrcmple.o
       356          4          0          0          0        140   dadd.o
       240          6          0          0          0         84   ddiv.o
       236          0          0          0          0        216   depilogue.o
        60         10          0          0          0         68   dfixui.o
        64         10          0          0          0         68   dfixul.o
        40          6          0          0          0         68   dflti.o
        28          4          0          0          0         68   dfltui.o
       208          6          0          0          0         88   dmul.o
        44          0          0          0          0         72   dscalb.o
       162          0          0          0          0         80   dsqrt.o

    ----------------------------------------------------------------------
      6984        398        144          8          0       2708   Library Totals
         6          0          0          0          0          0   (incl. Padding)

    ----------------------------------------------------------------------

      Code (inc. data)   RO Data    RW Data    ZI Data      Debug   Library Name

      2888        230        144          0          0        788   m_ps.l
      2612        120          0          8          0        900   mc_p.l
      1478         48          0          0          0       1020   mf_p.l

    ----------------------------------------------------------------------
      6984        398        144          8          0       2708   Library Totals

    ----------------------------------------------------------------------

==============================================================================


      Code (inc. data)   RO Data    RW Data    ZI Data      Debug   

     18400       1114       3044         36       2308     104011   Grand Totals
     18400       1114       3044         36       2308     104011   ELF Image Totals
     18400       1114       3044         36          0          0   ROM Totals

==============================================================================

    Total RO  Size (Code + RO Data)                21444 (  20.94kB)
    Total RW  Size (RW Data + ZI Data)              2344 (   2.29kB)
    Total ROM Size (Code + RO Data + RW Data)      21480 (  20.98kB)

==============================================================================

